{"abi":[{"type":"constructor","inputs":[{"name":"_name","type":"string","internalType":"string"},{"name":"_symbol","type":"string","internalType":"string"},{"name":"_paymentToken","type":"address","internalType":"address"},{"name":"_mintPrice","type":"uint256","internalType":"uint256"},{"name":"_maxSupply","type":"uint256","internalType":"uint256"},{"name":"_treasury","type":"address","internalType":"address"},{"name":"_beneficiary","type":"address","internalType":"address"}],"stateMutability":"nonpayable"},{"type":"function","name":"acceptPaymentToken","inputs":[],"outputs":[],"stateMutability":"nonpayable"},{"type":"function","name":"acceptTreasury","inputs":[],"outputs":[],"stateMutability":"nonpayable"},{"type":"function","name":"approve","inputs":[{"name":"to","type":"address","internalType":"address"},{"name":"tokenId","type":"uint256","internalType":"uint256"}],"outputs":[],"stateMutability":"nonpayable"},{"type":"function","name":"balanceOf","inputs":[{"name":"owner","type":"address","internalType":"address"}],"outputs":[{"name":"","type":"uint256","internalType":"uint256"}],"stateMutability":"view"},{"type":"function","name":"beneficiary","inputs":[],"outputs":[{"name":"","type":"address","internalType":"address"}],"stateMutability":"view"},{"type":"function","name":"getApproved","inputs":[{"name":"tokenId","type":"uint256","internalType":"uint256"}],"outputs":[{"name":"","type":"address","internalType":"address"}],"stateMutability":"view"},{"type":"function","name":"isApprovedForAll","inputs":[{"name":"owner","type":"address","internalType":"address"},{"name":"operator","type":"address","internalType":"address"}],"outputs":[{"name":"","type":"bool","internalType":"bool"}],"stateMutability":"view"},{"type":"function","name":"maxSupply","inputs":[],"outputs":[{"name":"","type":"uint256","internalType":"uint256"}],"stateMutability":"view"},{"type":"function","name":"mint","inputs":[],"outputs":[],"stateMutability":"nonpayable"},{"type":"function","name":"mintPrice","inputs":[],"outputs":[{"name":"","type":"uint256","internalType":"uint256"}],"stateMutability":"view"},{"type":"function","name":"name","inputs":[],"outputs":[{"name":"","type":"string","internalType":"string"}],"stateMutability":"view"},{"type":"function","name":"nominatePaymentToken","inputs":[{"name":"_newToken","type":"address","internalType":"address"}],"outputs":[],"stateMutability":"nonpayable"},{"type":"function","name":"nominateTreasury","inputs":[{"name":"_newTreasury","type":"address","internalType":"address"}],"outputs":[],"stateMutability":"nonpayable"},{"type":"function","name":"owner","inputs":[],"outputs":[{"name":"","type":"address","internalType":"address"}],"stateMutability":"view"},{"type":"function","name":"ownerOf","inputs":[{"name":"tokenId","type":"uint256","internalType":"uint256"}],"outputs":[{"name":"","type":"address","internalType":"address"}],"stateMutability":"view"},{"type":"function","name":"pause","inputs":[],"outputs":[],"stateMutability":"nonpayable"},{"type":"function","name":"paused","inputs":[],"outputs":[{"name":"","type":"bool","internalType":"bool"}],"stateMutability":"view"},{"type":"function","name":"paymentToken","inputs":[],"outputs":[{"name":"","type":"address","internalType":"contract IERC20"}],"stateMutability":"view"},{"type":"function","name":"pendingPaymentToken","inputs":[],"outputs":[{"name":"","type":"address","internalType":"address"}],"stateMutability":"view"},{"type":"function","name":"pendingTreasury","inputs":[],"outputs":[{"name":"","type":"address","internalType":"address"}],"stateMutability":"view"},{"type":"function","name":"renounceOwnership","inputs":[],"outputs":[],"stateMutability":"nonpayable"},{"type":"function","name":"safeTransferFrom","inputs":[{"name":"from","type":"address","internalType":"address"},{"name":"to","type":"address","internalType":"address"},{"name":"tokenId","type":"uint256","internalType":"uint256"}],"outputs":[],"stateMutability":"nonpayable"},{"type":"function","name":"safeTransferFrom","inputs":[{"name":"from","type":"address","internalType":"address"},{"name":"to","type":"address","internalType":"address"},{"name":"tokenId","type":"uint256","internalType":"uint256"},{"name":"data","type":"bytes","internalType":"bytes"}],"outputs":[],"stateMutability":"nonpayable"},{"type":"function","name":"setApprovalForAll","inputs":[{"name":"operator","type":"address","internalType":"address"},{"name":"approved","type":"bool","internalType":"bool"}],"outputs":[],"stateMutability":"nonpayable"},{"type":"function","name":"setBaseURI","inputs":[{"name":"_newBaseURI","type":"string","internalType":"string"}],"outputs":[],"stateMutability":"nonpayable"},{"type":"function","name":"setBeneficiary","inputs":[{"name":"_newBeneficiary","type":"address","internalType":"address"}],"outputs":[],"stateMutability":"nonpayable"},{"type":"function","name":"setMaxSupply","inputs":[{"name":"_newMax","type":"uint256","internalType":"uint256"}],"outputs":[],"stateMutability":"nonpayable"},{"type":"function","name":"setMintPrice","inputs":[{"name":"_newPrice","type":"uint256","internalType":"uint256"}],"outputs":[],"stateMutability":"nonpayable"},{"type":"function","name":"supportsInterface","inputs":[{"name":"interfaceId","type":"bytes4","internalType":"bytes4"}],"outputs":[{"name":"","type":"bool","internalType":"bool"}],"stateMutability":"view"},{"type":"function","name":"symbol","inputs":[],"outputs":[{"name":"","type":"string","internalType":"string"}],"stateMutability":"view"},{"type":"function","name":"tokenURI","inputs":[{"name":"tokenId","type":"uint256","internalType":"uint256"}],"outputs":[{"name":"","type":"string","internalType":"string"}],"stateMutability":"view"},{"type":"function","name":"totalMinted","inputs":[],"outputs":[{"name":"","type":"uint256","internalType":"uint256"}],"stateMutability":"view"},{"type":"function","name":"transferFrom","inputs":[{"name":"from","type":"address","internalType":"address"},{"name":"to","type":"address","internalType":"address"},{"name":"tokenId","type":"uint256","internalType":"uint256"}],"outputs":[],"stateMutability":"nonpayable"},{"type":"function","name":"transferOwnership","inputs":[{"name":"newOwner","type":"address","internalType":"address"}],"outputs":[],"stateMutability":"nonpayable"},{"type":"function","name":"treasury","inputs":[],"outputs":[{"name":"","type":"address","internalType":"address"}],"stateMutability":"view"},{"type":"function","name":"unpause","inputs":[],"outputs":[],"stateMutability":"nonpayable"},{"type":"event","name":"Approval","inputs":[{"name":"owner","type":"address","indexed":true,"internalType":"address"},{"name":"approved","type":"address","indexed":true,"internalType":"address"},{"name":"tokenId","type":"uint256","indexed":true,"internalType":"uint256"}],"anonymous":false},{"type":"event","name":"ApprovalForAll","inputs":[{"name":"owner","type":"address","indexed":true,"internalType":"address"},{"name":"operator","type":"address","indexed":true,"internalType":"address"},{"name":"approved","type":"bool","indexed":false,"internalType":"bool"}],"anonymous":false},{"type":"event","name":"BaseURIUpdated","inputs":[{"name":"oldBaseURI","type":"string","indexed":false,"internalType":"string"},{"name":"newBaseURI","type":"string","indexed":false,"internalType":"string"}],"anonymous":false},{"type":"event","name":"BeneficiaryUpdated","inputs":[{"name":"oldBeneficiary","type":"address","indexed":false,"internalType":"address"},{"name":"newBeneficiary","type":"address","indexed":false,"internalType":"address"}],"anonymous":false},{"type":"event","name":"MaxSupplyUpdated","inputs":[{"name":"oldMax","type":"uint256","indexed":false,"internalType":"uint256"},{"name":"newMax","type":"uint256","indexed":false,"internalType":"uint256"}],"anonymous":false},{"type":"event","name":"MintEvent","inputs":[{"name":"minter","type":"address","indexed":true,"internalType":"address"},{"name":"tokenId","type":"uint256","indexed":true,"internalType":"uint256"}],"anonymous":false},{"type":"event","name":"MintPriceUpdated","inputs":[{"name":"oldPrice","type":"uint256","indexed":false,"internalType":"uint256"},{"name":"newPrice","type":"uint256","indexed":false,"internalType":"uint256"}],"anonymous":false},{"type":"event","name":"OwnershipTransferred","inputs":[{"name":"previousOwner","type":"address","indexed":true,"internalType":"address"},{"name":"newOwner","type":"address","indexed":true,"internalType":"address"}],"anonymous":false},{"type":"event","name":"Paused","inputs":[],"anonymous":false},{"type":"event","name":"PaymentTokenAccepted","inputs":[{"name":"newToken","type":"address","indexed":false,"internalType":"address"}],"anonymous":false},{"type":"event","name":"PaymentTokenNominated","inputs":[{"name":"oldToken","type":"address","indexed":false,"internalType":"address"},{"name":"newToken","type":"address","indexed":false,"internalType":"address"}],"anonymous":false},{"type":"event","name":"Transfer","inputs":[{"name":"from","type":"address","indexed":true,"internalType":"address"},{"name":"to","type":"address","indexed":true,"internalType":"address"},{"name":"tokenId","type":"uint256","indexed":true,"internalType":"uint256"}],"anonymous":false},{"type":"event","name":"TreasuryAccepted","inputs":[{"name":"newTreasury","type":"address","indexed":false,"internalType":"address"}],"anonymous":false},{"type":"event","name":"TreasuryNominated","inputs":[{"name":"oldTreasury","type":"address","indexed":false,"internalType":"address"},{"name":"newTreasury","type":"address","indexed":false,"internalType":"address"}],"anonymous":false},{"type":"event","name":"Unpaused","inputs":[],"anonymous":false},{"type":"error","name":"BelowTotalMinted","inputs":[{"name":"requested","type":"uint256","internalType":"uint256"},{"name":"totalMinted","type":"uint256","internalType":"uint256"}]},{"type":"error","name":"ERC721IncorrectOwner","inputs":[{"name":"sender","type":"address","internalType":"address"},{"name":"tokenId","type":"uint256","internalType":"uint256"},{"name":"owner","type":"address","internalType":"address"}]},{"type":"error","name":"ERC721InsufficientApproval","inputs":[{"name":"operator","type":"address","internalType":"address"},{"name":"tokenId","type":"uint256","internalType":"uint256"}]},{"type":"error","name":"ERC721InvalidApprover","inputs":[{"name":"approver","type":"address","internalType":"address"}]},{"type":"error","name":"ERC721InvalidOperator","inputs":[{"name":"operator","type":"address","internalType":"address"}]},{"type":"error","name":"ERC721InvalidOwner","inputs":[{"name":"owner","type":"address","internalType":"address"}]},{"type":"error","name":"ERC721InvalidReceiver","inputs":[{"name":"receiver","type":"address","internalType":"address"}]},{"type":"error","name":"ERC721InvalidSender","inputs":[{"name":"sender","type":"address","internalType":"address"}]},{"type":"error","name":"ERC721NonexistentToken","inputs":[{"name":"tokenId","type":"uint256","internalType":"uint256"}]},{"type":"error","name":"InsufficientPayment","inputs":[]},{"type":"error","name":"IsPaused","inputs":[]},{"type":"error","name":"NotPendingAddress","inputs":[]},{"type":"error","name":"OwnableInvalidOwner","inputs":[{"name":"owner","type":"address","internalType":"address"}]},{"type":"error","name":"OwnableUnauthorizedAccount","inputs":[{"name":"account","type":"address","internalType":"address"}]},{"type":"error","name":"PriceNotSet","inputs":[]},{"type":"error","name":"SafeERC20FailedOperation","inputs":[{"name":"token","type":"address","internalType":"address"}]},{"type":"error","name":"SoldOut","inputs":[]},{"type":"error","name":"TransferFailed","inputs":[]},{"type":"error","name":"ZeroAddress","inputs":[]}],"bytecode":{"object":"0x608060405234801561000f575f5ffd5b50604051613ef7380380613ef7833981810160405281019061003191906105b4565b338787815f90816100429190610890565b5080600190816100529190610890565b5050505f73ffffffffffffffffffffffffffffffffffffffff168173ffffffffffffffffffffffffffffffffffffffff16036100c5575f6040517f1e4fbdf70000000000000000000000000000000000000000000000000000000081526004016100bc919061096e565b60405180910390fd5b6100d48161031760201b60201c565b505f73ffffffffffffffffffffffffffffffffffffffff168573ffffffffffffffffffffffffffffffffffffffff160361013a576040517fd92e233d00000000000000000000000000000000000000000000000000000000815260040160405180910390fd5b5f8403610173576040517f27515afa00000000000000000000000000000000000000000000000000000000815260040160405180910390fd5b5f73ffffffffffffffffffffffffffffffffffffffff168273ffffffffffffffffffffffffffffffffffffffff16036101d8576040517fd92e233d00000000000000000000000000000000000000000000000000000000815260040160405180910390fd5b5f73ffffffffffffffffffffffffffffffffffffffff168173ffffffffffffffffffffffffffffffffffffffff160361023d576040517fd92e233d00000000000000000000000000000000000000000000000000000000815260040160405180910390fd5b8460075f6101000a81548173ffffffffffffffffffffffffffffffffffffffff021916908373ffffffffffffffffffffffffffffffffffffffff160217905550836008819055508260098190555081600a5f6101000a81548173ffffffffffffffffffffffffffffffffffffffff021916908373ffffffffffffffffffffffffffffffffffffffff16021790555080600b5f6101000a81548173ffffffffffffffffffffffffffffffffffffffff021916908373ffffffffffffffffffffffffffffffffffffffff16021790555050505050505050610987565b5f60065f9054906101000a900473ffffffffffffffffffffffffffffffffffffffff1690508160065f6101000a81548173ffffffffffffffffffffffffffffffffffffffff021916908373ffffffffffffffffffffffffffffffffffffffff1602179055508173ffffffffffffffffffffffffffffffffffffffff168173ffffffffffffffffffffffffffffffffffffffff167f8be0079c531659141344cd1fd0a4f28419497f9722a3daafe3b4186f6b6457e060405160405180910390a35050565b5f604051905090565b5f5ffd5b5f5ffd5b5f5ffd5b5f5ffd5b5f601f19601f8301169050919050565b7f4e487b71000000000000000000000000000000000000000000000000000000005f52604160045260245ffd5b610439826103f3565b810181811067ffffffffffffffff8211171561045857610457610403565b5b80604052505050565b5f61046a6103da565b90506104768282610430565b919050565b5f67ffffffffffffffff82111561049557610494610403565b5b61049e826103f3565b9050602081019050919050565b8281835e5f83830152505050565b5f6104cb6104c68461047b565b610461565b9050828152602081018484840111156104e7576104e66103ef565b5b6104f28482856104ab565b509392505050565b5f82601f83011261050e5761050d6103eb565b5b815161051e8482602086016104b9565b91505092915050565b5f73ffffffffffffffffffffffffffffffffffffffff82169050919050565b5f61055082610527565b9050919050565b61056081610546565b811461056a575f5ffd5b50565b5f8151905061057b81610557565b92915050565b5f819050919050565b61059381610581565b811461059d575f5ffd5b50565b5f815190506105ae8161058a565b92915050565b5f5f5f5f5f5f5f60e0888a0312156105cf576105ce6103e3565b5b5f88015167ffffffffffffffff8111156105ec576105eb6103e7565b5b6105f88a828b016104fa565b975050602088015167ffffffffffffffff811115610619576106186103e7565b5b6106258a828b016104fa565b96505060406106368a828b0161056d565b95505060606106478a828b016105a0565b94505060806106588a828b016105a0565b93505060a06106698a828b0161056d565b92505060c061067a8a828b0161056d565b91505092959891949750929550565b5f81519050919050565b7f4e487b71000000000000000000000000000000000000000000000000000000005f52602260045260245ffd5b5f60028204905060018216806106d757607f821691505b6020821081036106ea576106e9610693565b5b50919050565b5f819050815f5260205f209050919050565b5f6020601f8301049050919050565b5f82821b905092915050565b5f6008830261074c7fffffffffffffffffffffffffffffffffffffffffffffffffffffffffffffffff82610711565b6107568683610711565b95508019841693508086168417925050509392505050565b5f819050919050565b5f61079161078c61078784610581565b61076e565b610581565b9050919050565b5f819050919050565b6107aa83610777565b6107be6107b682610798565b84845461071d565b825550505050565b5f5f905090565b6107d56107c6565b6107e08184846107a1565b505050565b5b81811015610803576107f85f826107cd565b6001810190506107e6565b5050565b601f82111561084857610819816106f0565b61082284610702565b81016020851015610831578190505b61084561083d85610702565b8301826107e5565b50505b505050565b5f82821c905092915050565b5f6108685f198460080261084d565b1980831691505092915050565b5f6108808383610859565b9150826002028217905092915050565b61089982610689565b67ffffffffffffffff8111156108b2576108b1610403565b5b6108bc82546106c0565b6108c7828285610807565b5f60209050601f8311600181146108f8575f84156108e6578287015190505b6108f08582610875565b865550610957565b601f198416610906866106f0565b5f5b8281101561092d57848901518255600182019150602085019450602081019050610908565b8683101561094a5784890151610946601f891682610859565b8355505b6001600288020188555050505b505050505050565b61096881610546565b82525050565b5f6020820190506109815f83018461095f565b92915050565b613563806109945f395ff3fe608060405234801561000f575f5ffd5b506004361061021a575f3560e01c80636f8b44b011610123578063c87b56dd116100ab578063e985e9c51161007a578063e985e9c514610590578063f167ad2f146105c0578063f2fde38b146105de578063f338bee8146105fa578063f4a0a528146106165761021a565b8063c87b56dd1461051c578063d5abeb011461054c578063dec9ff831461056a578063e49d2a30146105865761021a565b80638da5cb5b116100f25780638da5cb5b1461048a57806395d89b41146104a8578063a22cb465146104c6578063a2309ff8146104e2578063b88d4fde146105005761021a565b80636f8b44b01461042a57806370a0823114610446578063715018a6146104765780638456cb59146104805761021a565b806338af3eed116101a657806355f804b31161017557806355f804b3146103845780635c975abb146103a057806361d027b3146103be5780636352211e146103dc5780636817c76c1461040c5761021a565b806338af3eed146103365780633f4ba83a14610354578063412b1e911461035e57806342842e0e146103685761021a565b80631249c58b116101ed5780631249c58b146102b85780631c31f710146102c257806323b872dd146102de5780632ed6b75d146102fa5780633013ce29146103185761021a565b806301ffc9a71461021e57806306fdde031461024e578063081812fc1461026c578063095ea7b31461029c575b5f5ffd5b610238600480360381019061023391906128a2565b610632565b60405161024591906128e7565b60405180910390f35b610256610713565b6040516102639190612970565b60405180910390f35b610286600480360381019061028191906129c3565b6107a2565b6040516102939190612a2d565b60405180910390f35b6102b660048036038101906102b19190612a70565b6107bd565b005b6102c06107d3565b005b6102dc60048036038101906102d79190612aae565b6109fb565b005b6102f860048036038101906102f39190612ad9565b610b05565b005b610302610c04565b60405161030f9190612a2d565b60405180910390f35b610320610c29565b60405161032d9190612b84565b60405180910390f35b61033e610c4e565b60405161034b9190612a2d565b60405180910390f35b61035c610c73565b005b610366610cc2565b005b610382600480360381019061037d9190612ad9565b610e43565b005b61039e60048036038101906103999190612cc9565b610e62565b005b6103a8610eb7565b6040516103b591906128e7565b60405180910390f35b6103c6610ec9565b6040516103d39190612a2d565b60405180910390f35b6103f660048036038101906103f191906129c3565b610eee565b6040516104039190612a2d565b60405180910390f35b610414610eff565b6040516104219190612d1f565b60405180910390f35b610444600480360381019061043f91906129c3565b610f05565b005b610460600480360381019061045b9190612aae565b610fe8565b60405161046d9190612d1f565b60405180910390f35b61047e61109e565b005b6104886110b1565b005b610492611101565b60405161049f9190612a2d565b60405180910390f35b6104b0611129565b6040516104bd9190612970565b60405180910390f35b6104e060048036038101906104db9190612d62565b6111b9565b005b6104ea6111cf565b6040516104f79190612d1f565b60405180910390f35b61051a60048036038101906105159190612e3e565b6111d5565b005b610536600480360381019061053191906129c3565b6111fa565b6040516105439190612970565b60405180910390f35b610554611260565b6040516105619190612d1f565b60405180910390f35b610584600480360381019061057f9190612aae565b611266565b005b61058e611370565b005b6105aa60048036038101906105a59190612ebe565b6114f1565b6040516105b791906128e7565b60405180910390f35b6105c861157f565b6040516105d59190612a2d565b60405180910390f35b6105f860048036038101906105f39190612aae565b6115a4565b005b610614600480360381019061060f9190612aae565b611628565b005b610630600480360381019061062b91906129c3565b611788565b005b5f7f80ac58cd000000000000000000000000000000000000000000000000000000007bffffffffffffffffffffffffffffffffffffffffffffffffffffffff1916827bffffffffffffffffffffffffffffffffffffffffffffffffffffffff191614806106fc57507f5b5e139f000000000000000000000000000000000000000000000000000000007bffffffffffffffffffffffffffffffffffffffffffffffffffffffff1916827bffffffffffffffffffffffffffffffffffffffffffffffffffffffff1916145b8061070c575061070b8261181b565b5b9050919050565b60605f805461072190612f29565b80601f016020809104026020016040519081016040528092919081815260200182805461074d90612f29565b80156107985780601f1061076f57610100808354040283529160200191610798565b820191905f5260205f20905b81548152906001019060200180831161077b57829003601f168201915b5050505050905090565b5f6107ac82611884565b506107b68261190a565b9050919050565b6107cf82826107ca611943565b61194a565b5050565b60105f9054906101000a900460ff1615610819576040517f1309a56300000000000000000000000000000000000000000000000000000000815260040160405180910390fd5b5f60085403610854576040517f27515afa00000000000000000000000000000000000000000000000000000000815260040160405180910390fd5b600954600f5410610891576040517f52df9fe500000000000000000000000000000000000000000000000000000000815260040160405180910390fd5b5f600f5f81546108a090612f86565b91905081905590505f60075f9054906101000a900473ffffffffffffffffffffffffffffffffffffffff1690505f600854905061092133600a5f9054906101000a900473ffffffffffffffffffffffffffffffffffffffff16838573ffffffffffffffffffffffffffffffffffffffff1661195c909392919063ffffffff16565b600a5f9054906101000a900473ffffffffffffffffffffffffffffffffffffffff1673ffffffffffffffffffffffffffffffffffffffff1663b6b55f25826040518263ffffffff1660e01b815260040161097b9190612d1f565b5f604051808303815f87803b158015610992575f5ffd5b505af11580156109a4573d5f5f3e3d5ffd5b50505050823373ffffffffffffffffffffffffffffffffffffffff167f3fffaa5804a26fcec0d70b1d0fb0a2d0031df3a5f9c8af2127c2f4360e97b46360405160405180910390a36109f633846119de565b505050565b610a036119fb565b5f73ffffffffffffffffffffffffffffffffffffffff168173ffffffffffffffffffffffffffffffffffffffff1603610a68576040517fd92e233d00000000000000000000000000000000000000000000000000000000815260040160405180910390fd5b7fe72eaf6addaa195f3c83095031dd08f3a96808dcf047babed1fe4e4f69d6c622600b5f9054906101000a900473ffffffffffffffffffffffffffffffffffffffff1682604051610aba929190612fcd565b60405180910390a180600b5f6101000a81548173ffffffffffffffffffffffffffffffffffffffff021916908373ffffffffffffffffffffffffffffffffffffffff16021790555050565b5f73ffffffffffffffffffffffffffffffffffffffff168273ffffffffffffffffffffffffffffffffffffffff1603610b75575f6040517f64a0ae92000000000000000000000000000000000000000000000000000000008152600401610b6c9190612a2d565b60405180910390fd5b5f610b888383610b83611943565b611a82565b90508373ffffffffffffffffffffffffffffffffffffffff168173ffffffffffffffffffffffffffffffffffffffff1614610bfe578382826040517f64283d7b000000000000000000000000000000000000000000000000000000008152600401610bf593929190612ff4565b60405180910390fd5b50505050565b600d5f9054906101000a900473ffffffffffffffffffffffffffffffffffffffff1681565b60075f9054906101000a900473ffffffffffffffffffffffffffffffffffffffff1681565b600b5f9054906101000a900473ffffffffffffffffffffffffffffffffffffffff1681565b610c7b6119fb565b5f60105f6101000a81548160ff0219169083151502179055507fa45f47fdea8a1efdd9029a5691c7f759c32b7c698632b563573e155625d1693360405160405180910390a1565b600e5f9054906101000a900473ffffffffffffffffffffffffffffffffffffffff1673ffffffffffffffffffffffffffffffffffffffff163373ffffffffffffffffffffffffffffffffffffffff1614610d48576040517f219afd4c00000000000000000000000000000000000000000000000000000000815260040160405180910390fd5b600e5f9054906101000a900473ffffffffffffffffffffffffffffffffffffffff1660075f6101000a81548173ffffffffffffffffffffffffffffffffffffffff021916908373ffffffffffffffffffffffffffffffffffffffff1602179055505f600e5f6101000a81548173ffffffffffffffffffffffffffffffffffffffff021916908373ffffffffffffffffffffffffffffffffffffffff1602179055507f6a17c4d89b740203f824d91d219edc95c49fd9d8df7667213fc13573a2f9b7a460075f9054906101000a900473ffffffffffffffffffffffffffffffffffffffff16604051610e399190612a2d565b60405180910390a1565b610e5d83838360405180602001604052805f8152506111d5565b505050565b610e6a6119fb565b7f309b29ded109b9e28fb9885757b3e0096eb75c51d23aa4635d68bcd569f6adc1600c82604051610e9c9291906130bc565b60405180910390a180600c9081610eb39190613276565b5050565b60105f9054906101000a900460ff1681565b600a5f9054906101000a900473ffffffffffffffffffffffffffffffffffffffff1681565b5f610ef882611884565b9050919050565b60085481565b610f0d6119fb565b60105f9054906101000a900460ff1615610f53576040517f1309a56300000000000000000000000000000000000000000000000000000000815260040160405180910390fd5b600f54811015610f9e5780600f546040517f119cdd41000000000000000000000000000000000000000000000000000000008152600401610f95929190613345565b60405180910390fd5b5f6009549050816009819055507f44ecfc706d63e347851cfd40acfa6cf2e3a41faa3e8b460210c03938e84a91ad8183604051610fdc929190613345565b60405180910390a15050565b5f5f73ffffffffffffffffffffffffffffffffffffffff168273ffffffffffffffffffffffffffffffffffffffff1603611059575f6040517f89c62b640000000000000000000000000000000000000000000000000000000081526004016110509190612a2d565b60405180910390fd5b60035f8373ffffffffffffffffffffffffffffffffffffffff1673ffffffffffffffffffffffffffffffffffffffff1681526020019081526020015f20549050919050565b6110a66119fb565b6110af5f611c8d565b565b6110b96119fb565b600160105f6101000a81548160ff0219169083151502179055507f9e87fac88ff661f02d44f95383c817fece4bce600a3dab7a54406878b965e75260405160405180910390a1565b5f60065f9054906101000a900473ffffffffffffffffffffffffffffffffffffffff16905090565b60606001805461113890612f29565b80601f016020809104026020016040519081016040528092919081815260200182805461116490612f29565b80156111af5780601f10611186576101008083540402835291602001916111af565b820191905f5260205f20905b81548152906001019060200180831161119257829003601f168201915b5050505050905090565b6111cb6111c4611943565b8383611d50565b5050565b600f5481565b6111e0848484610b05565b6111f46111eb611943565b85858585611eb9565b50505050565b606061120582611884565b505f61120f612065565b90505f81511161122d5760405180602001604052805f815250611258565b80611237846120f5565b6040516020016112489291906133a6565b6040516020818303038152906040525b915050919050565b60095481565b61126e6119fb565b5f73ffffffffffffffffffffffffffffffffffffffff168173ffffffffffffffffffffffffffffffffffffffff16036112d3576040517fd92e233d00000000000000000000000000000000000000000000000000000000815260040160405180910390fd5b80600d5f6101000a81548173ffffffffffffffffffffffffffffffffffffffff021916908373ffffffffffffffffffffffffffffffffffffffff1602179055507f5291cf42cb0489a85949f76bea5e3c3969378c5cf5d1fab73ab33d587f31baab600a5f9054906101000a900473ffffffffffffffffffffffffffffffffffffffff1682604051611365929190612fcd565b60405180910390a150565b600d5f9054906101000a900473ffffffffffffffffffffffffffffffffffffffff1673ffffffffffffffffffffffffffffffffffffffff163373ffffffffffffffffffffffffffffffffffffffff16146113f6576040517f219afd4c00000000000000000000000000000000000000000000000000000000815260040160405180910390fd5b600d5f9054906101000a900473ffffffffffffffffffffffffffffffffffffffff16600a5f6101000a81548173ffffffffffffffffffffffffffffffffffffffff021916908373ffffffffffffffffffffffffffffffffffffffff1602179055505f600d5f6101000a81548173ffffffffffffffffffffffffffffffffffffffff021916908373ffffffffffffffffffffffffffffffffffffffff1602179055507fa5fe771452a75aae455f917697119552974e0488ef3e0ca493bce34ef8f11cc0600a5f9054906101000a900473ffffffffffffffffffffffffffffffffffffffff166040516114e79190612a2d565b60405180910390a1565b5f60055f8473ffffffffffffffffffffffffffffffffffffffff1673ffffffffffffffffffffffffffffffffffffffff1681526020019081526020015f205f8373ffffffffffffffffffffffffffffffffffffffff1673ffffffffffffffffffffffffffffffffffffffff1681526020019081526020015f205f9054906101000a900460ff16905092915050565b600e5f9054906101000a900473ffffffffffffffffffffffffffffffffffffffff1681565b6115ac6119fb565b5f73ffffffffffffffffffffffffffffffffffffffff168173ffffffffffffffffffffffffffffffffffffffff160361161c575f6040517f1e4fbdf70000000000000000000000000000000000000000000000000000000081526004016116139190612a2d565b60405180910390fd5b61162581611c8d565b50565b6116306119fb565b5f73ffffffffffffffffffffffffffffffffffffffff168173ffffffffffffffffffffffffffffffffffffffff1603611695576040517fd92e233d00000000000000000000000000000000000000000000000000000000815260040160405180910390fd5b8073ffffffffffffffffffffffffffffffffffffffff1660075f9054906101000a900473ffffffffffffffffffffffffffffffffffffffff1673ffffffffffffffffffffffffffffffffffffffff1603156117855780600e5f6101000a81548173ffffffffffffffffffffffffffffffffffffffff021916908373ffffffffffffffffffffffffffffffffffffffff1602179055507ffdd5355de3e90328b94ee911641a8d193b6c0ec3f28894d28af98b37c75d7e2d60075f9054906101000a900473ffffffffffffffffffffffffffffffffffffffff168260405161177c929190612fcd565b60405180910390a15b50565b6117906119fb565b60105f9054906101000a900460ff16156117d6576040517f1309a56300000000000000000000000000000000000000000000000000000000815260040160405180910390fd5b7f2e1c9e000c6e8dda4d03536adb13b7cb6034ccff90d17f01de381e4d5097b52560085482604051611809929190613345565b60405180910390a18060088190555050565b5f7f01ffc9a7000000000000000000000000000000000000000000000000000000007bffffffffffffffffffffffffffffffffffffffffffffffffffffffff1916827bffffffffffffffffffffffffffffffffffffffffffffffffffffffff1916149050919050565b5f5f61188f836121bf565b90505f73ffffffffffffffffffffffffffffffffffffffff168173ffffffffffffffffffffffffffffffffffffffff160361190157826040517f7e2732890000000000000000000000000000000000000000000000000000000081526004016118f89190612d1f565b60405180910390fd5b80915050919050565b5f60045f8381526020019081526020015f205f9054906101000a900473ffffffffffffffffffffffffffffffffffffffff169050919050565b5f33905090565b61195783838360016121f8565b505050565b6119d8848573ffffffffffffffffffffffffffffffffffffffff166323b872dd868686604051602401611991939291906133c9565b604051602081830303815290604052915060e01b6020820180517bffffffffffffffffffffffffffffffffffffffffffffffffffffffff83818316178352505050506123b7565b50505050565b6119f7828260405180602001604052805f815250612452565b5050565b611a03611943565b73ffffffffffffffffffffffffffffffffffffffff16611a21611101565b73ffffffffffffffffffffffffffffffffffffffff1614611a8057611a44611943565b6040517f118cdaa7000000000000000000000000000000000000000000000000000000008152600401611a779190612a2d565b60405180910390fd5b565b5f5f611a8d846121bf565b90505f73ffffffffffffffffffffffffffffffffffffffff168373ffffffffffffffffffffffffffffffffffffffff1614611ace57611acd818486612475565b5b5f73ffffffffffffffffffffffffffffffffffffffff168173ffffffffffffffffffffffffffffffffffffffff1614611b5957611b0d5f855f5f6121f8565b600160035f8373ffffffffffffffffffffffffffffffffffffffff1673ffffffffffffffffffffffffffffffffffffffff1681526020019081526020015f205f82825403925050819055505b5f73ffffffffffffffffffffffffffffffffffffffff168573ffffffffffffffffffffffffffffffffffffffff1614611bd857600160035f8773ffffffffffffffffffffffffffffffffffffffff1673ffffffffffffffffffffffffffffffffffffffff1681526020019081526020015f205f82825401925050819055505b8460025f8681526020019081526020015f205f6101000a81548173ffffffffffffffffffffffffffffffffffffffff021916908373ffffffffffffffffffffffffffffffffffffffff160217905550838573ffffffffffffffffffffffffffffffffffffffff168273ffffffffffffffffffffffffffffffffffffffff167fddf252ad1be2c89b69c2b068fc378daa952ba7f163c4a11628f55a4df523b3ef60405160405180910390a4809150509392505050565b5f60065f9054906101000a900473ffffffffffffffffffffffffffffffffffffffff1690508160065f6101000a81548173ffffffffffffffffffffffffffffffffffffffff021916908373ffffffffffffffffffffffffffffffffffffffff1602179055508173ffffffffffffffffffffffffffffffffffffffff168173ffffffffffffffffffffffffffffffffffffffff167f8be0079c531659141344cd1fd0a4f28419497f9722a3daafe3b4186f6b6457e060405160405180910390a35050565b5f73ffffffffffffffffffffffffffffffffffffffff168273ffffffffffffffffffffffffffffffffffffffff1603611dc057816040517f5b08ba18000000000000000000000000000000000000000000000000000000008152600401611db79190612a2d565b60405180910390fd5b8060055f8573ffffffffffffffffffffffffffffffffffffffff1673ffffffffffffffffffffffffffffffffffffffff1681526020019081526020015f205f8473ffffffffffffffffffffffffffffffffffffffff1673ffffffffffffffffffffffffffffffffffffffff1681526020019081526020015f205f6101000a81548160ff0219169083151502179055508173ffffffffffffffffffffffffffffffffffffffff168373ffffffffffffffffffffffffffffffffffffffff167f17307eab39ab6107e8899845ad3d59bd9653f200f220920489ca2b5937696c3183604051611eac91906128e7565b60405180910390a3505050565b5f8373ffffffffffffffffffffffffffffffffffffffff163b111561205e578273ffffffffffffffffffffffffffffffffffffffff1663150b7a02868685856040518563ffffffff1660e01b8152600401611f179493929190613450565b6020604051808303815f875af1925050508015611f5257506040513d601f19601f82011682018060405250810190611f4f91906134ae565b60015b611fd3573d805f8114611f80576040519150601f19603f3d011682016040523d82523d5f602084013e611f85565b606091505b505f815103611fcb57836040517f64a0ae92000000000000000000000000000000000000000000000000000000008152600401611fc29190612a2d565b60405180910390fd5b805181602001fd5b63150b7a0260e01b7bffffffffffffffffffffffffffffffffffffffffffffffffffffffff1916817bffffffffffffffffffffffffffffffffffffffffffffffffffffffff19161461205c57836040517f64a0ae920000000000000000000000000000000000000000000000000000000081526004016120539190612a2d565b60405180910390fd5b505b5050505050565b6060600c805461207490612f29565b80601f01602080910402602001604051908101604052809291908181526020018280546120a090612f29565b80156120eb5780601f106120c2576101008083540402835291602001916120eb565b820191905f5260205f20905b8154815290600101906020018083116120ce57829003601f168201915b5050505050905090565b60605f600161210384612538565b0190505f8167ffffffffffffffff81111561212157612120612ba5565b5b6040519080825280601f01601f1916602001820160405280156121535781602001600182028036833780820191505090505b5090505f82602001820190505b6001156121b4578080600190039150507f3031323334353637383961626364656600000000000000000000000000000000600a86061a8153600a85816121a9576121a86134d9565b5b0494505f8503612160575b819350505050919050565b5f60025f8381526020019081526020015f205f9054906101000a900473ffffffffffffffffffffffffffffffffffffffff169050919050565b808061223057505f73ffffffffffffffffffffffffffffffffffffffff168273ffffffffffffffffffffffffffffffffffffffff1614155b15612362575f61223f84611884565b90505f73ffffffffffffffffffffffffffffffffffffffff168373ffffffffffffffffffffffffffffffffffffffff16141580156122a957508273ffffffffffffffffffffffffffffffffffffffff168173ffffffffffffffffffffffffffffffffffffffff1614155b80156122bc57506122ba81846114f1565b155b156122fe57826040517fa9fbf51f0000000000000000000000000000000000000000000000000000000081526004016122f59190612a2d565b60405180910390fd5b811561236057838573ffffffffffffffffffffffffffffffffffffffff168273ffffffffffffffffffffffffffffffffffffffff167f8c5be1e5ebec7d5bd14f71427d1e84f3dd0314c0f7b2291e5b200ac8c7c3b92560405160405180910390a45b505b8360045f8581526020019081526020015f205f6101000a81548173ffffffffffffffffffffffffffffffffffffffff021916908373ffffffffffffffffffffffffffffffffffffffff16021790555050505050565b5f5f60205f8451602086015f885af1806123d6576040513d5f823e3d81fd5b3d92505f519150505f82146123ef57600181141561240a565b5f8473ffffffffffffffffffffffffffffffffffffffff163b145b1561244c57836040517f5274afe70000000000000000000000000000000000000000000000000000000081526004016124439190612a2d565b60405180910390fd5b50505050565b61245c8383612689565b612470612467611943565b5f858585611eb9565b505050565b61248083838361277c565b612533575f73ffffffffffffffffffffffffffffffffffffffff168373ffffffffffffffffffffffffffffffffffffffff16036124f457806040517f7e2732890000000000000000000000000000000000000000000000000000000081526004016124eb9190612d1f565b60405180910390fd5b81816040517f177e802f00000000000000000000000000000000000000000000000000000000815260040161252a929190613506565b60405180910390fd5b505050565b5f5f5f90507a184f03e93ff9f4daa797ed6e38ed64bf6a1f0100000000000000008310612594577a184f03e93ff9f4daa797ed6e38ed64bf6a1f010000000000000000838161258a576125896134d9565b5b0492506040810190505b6d04ee2d6d415b85acef810000000083106125d1576d04ee2d6d415b85acef810000000083816125c7576125c66134d9565b5b0492506020810190505b662386f26fc10000831061260057662386f26fc1000083816125f6576125f56134d9565b5b0492506010810190505b6305f5e1008310612629576305f5e100838161261f5761261e6134d9565b5b0492506008810190505b612710831061264e576127108381612644576126436134d9565b5b0492506004810190505b606483106126715760648381612667576126666134d9565b5b0492506002810190505b600a8310612680576001810190505b80915050919050565b5f73ffffffffffffffffffffffffffffffffffffffff168273ffffffffffffffffffffffffffffffffffffffff16036126f9575f6040517f64a0ae920000000000000000000000000000000000000000000000000000000081526004016126f09190612a2d565b60405180910390fd5b5f61270583835f611a82565b90505f73ffffffffffffffffffffffffffffffffffffffff168173ffffffffffffffffffffffffffffffffffffffff1614612777575f6040517f73c6ac6e00000000000000000000000000000000000000000000000000000000815260040161276e9190612a2d565b60405180910390fd5b505050565b5f5f73ffffffffffffffffffffffffffffffffffffffff168373ffffffffffffffffffffffffffffffffffffffff161415801561283357508273ffffffffffffffffffffffffffffffffffffffff168473ffffffffffffffffffffffffffffffffffffffff1614806127f457506127f384846114f1565b5b8061283257508273ffffffffffffffffffffffffffffffffffffffff1661281a8361190a565b73ffffffffffffffffffffffffffffffffffffffff16145b5b90509392505050565b5f604051905090565b5f5ffd5b5f5ffd5b5f7fffffffff0000000000000000000000000000000000000000000000000000000082169050919050565b6128818161284d565b811461288b575f5ffd5b50565b5f8135905061289c81612878565b92915050565b5f602082840312156128b7576128b6612845565b5b5f6128c48482850161288e565b91505092915050565b5f8115159050919050565b6128e1816128cd565b82525050565b5f6020820190506128fa5f8301846128d8565b92915050565b5f81519050919050565b5f82825260208201905092915050565b8281835e5f83830152505050565b5f601f19601f8301169050919050565b5f61294282612900565b61294c818561290a565b935061295c81856020860161291a565b61296581612928565b840191505092915050565b5f6020820190508181035f8301526129888184612938565b905092915050565b5f819050919050565b6129a281612990565b81146129ac575f5ffd5b50565b5f813590506129bd81612999565b92915050565b5f602082840312156129d8576129d7612845565b5b5f6129e5848285016129af565b91505092915050565b5f73ffffffffffffffffffffffffffffffffffffffff82169050919050565b5f612a17826129ee565b9050919050565b612a2781612a0d565b82525050565b5f602082019050612a405f830184612a1e565b92915050565b612a4f81612a0d565b8114612a59575f5ffd5b50565b5f81359050612a6a81612a46565b92915050565b5f5f60408385031215612a8657612a85612845565b5b5f612a9385828601612a5c565b9250506020612aa4858286016129af565b9150509250929050565b5f60208284031215612ac357612ac2612845565b5b5f612ad084828501612a5c565b91505092915050565b5f5f5f60608486031215612af057612aef612845565b5b5f612afd86828701612a5c565b9350506020612b0e86828701612a5c565b9250506040612b1f868287016129af565b9150509250925092565b5f819050919050565b5f612b4c612b47612b42846129ee565b612b29565b6129ee565b9050919050565b5f612b5d82612b32565b9050919050565b5f612b6e82612b53565b9050919050565b612b7e81612b64565b82525050565b5f602082019050612b975f830184612b75565b92915050565b5f5ffd5b5f5ffd5b7f4e487b71000000000000000000000000000000000000000000000000000000005f52604160045260245ffd5b612bdb82612928565b810181811067ffffffffffffffff82111715612bfa57612bf9612ba5565b5b80604052505050565b5f612c0c61283c565b9050612c188282612bd2565b919050565b5f67ffffffffffffffff821115612c3757612c36612ba5565b5b612c4082612928565b9050602081019050919050565b828183375f83830152505050565b5f612c6d612c6884612c1d565b612c03565b905082815260208101848484011115612c8957612c88612ba1565b5b612c94848285612c4d565b509392505050565b5f82601f830112612cb057612caf612b9d565b5b8135612cc0848260208601612c5b565b91505092915050565b5f60208284031215612cde57612cdd612845565b5b5f82013567ffffffffffffffff811115612cfb57612cfa612849565b5b612d0784828501612c9c565b91505092915050565b612d1981612990565b82525050565b5f602082019050612d325f830184612d10565b92915050565b612d41816128cd565b8114612d4b575f5ffd5b50565b5f81359050612d5c81612d38565b92915050565b5f5f60408385031215612d7857612d77612845565b5b5f612d8585828601612a5c565b9250506020612d9685828601612d4e565b9150509250929050565b5f67ffffffffffffffff821115612dba57612db9612ba5565b5b612dc382612928565b9050602081019050919050565b5f612de2612ddd84612da0565b612c03565b905082815260208101848484011115612dfe57612dfd612ba1565b5b612e09848285612c4d565b509392505050565b5f82601f830112612e2557612e24612b9d565b5b8135612e35848260208601612dd0565b91505092915050565b5f5f5f5f60808587031215612e5657612e55612845565b5b5f612e6387828801612a5c565b9450506020612e7487828801612a5c565b9350506040612e85878288016129af565b925050606085013567ffffffffffffffff811115612ea657612ea5612849565b5b612eb287828801612e11565b91505092959194509250565b5f5f60408385031215612ed457612ed3612845565b5b5f612ee185828601612a5c565b9250506020612ef285828601612a5c565b9150509250929050565b7f4e487b71000000000000000000000000000000000000000000000000000000005f52602260045260245ffd5b5f6002820490506001821680612f4057607f821691505b602082108103612f5357612f52612efc565b5b50919050565b7f4e487b71000000000000000000000000000000000000000000000000000000005f52601160045260245ffd5b5f612f9082612990565b91507fffffffffffffffffffffffffffffffffffffffffffffffffffffffffffffffff8203612fc257612fc1612f59565b5b600182019050919050565b5f604082019050612fe05f830185612a1e565b612fed6020830184612a1e565b9392505050565b5f6060820190506130075f830186612a1e565b6130146020830185612d10565b6130216040830184612a1e565b949350505050565b5f819050815f5260205f209050919050565b5f815461304781612f29565b613051818661290a565b9450600182165f811461306b5760018114613081576130b3565b60ff1983168652811515602002860193506130b3565b61308a85613029565b5f5b838110156130ab5781548189015260018201915060208101905061308c565b808801955050505b50505092915050565b5f6040820190508181035f8301526130d4818561303b565b905081810360208301526130e88184612938565b90509392505050565b5f6020601f8301049050919050565b5f82821b905092915050565b5f6008830261313b7fffffffffffffffffffffffffffffffffffffffffffffffffffffffffffffffff82613100565b6131458683613100565b95508019841693508086168417925050509392505050565b5f61317761317261316d84612990565b612b29565b612990565b9050919050565b5f819050919050565b6131908361315d565b6131a461319c8261317e565b84845461310c565b825550505050565b5f5f905090565b6131bb6131ac565b6131c6818484613187565b505050565b5b818110156131e9576131de5f826131b3565b6001810190506131cc565b5050565b601f82111561322e576131ff81613029565b613208846130f1565b81016020851015613217578190505b61322b613223856130f1565b8301826131cb565b50505b505050565b5f82821c905092915050565b5f61324e5f1984600802613233565b1980831691505092915050565b5f613266838361323f565b9150826002028217905092915050565b61327f82612900565b67ffffffffffffffff81111561329857613297612ba5565b5b6132a28254612f29565b6132ad8282856131ed565b5f60209050601f8311600181146132de575f84156132cc578287015190505b6132d6858261325b565b86555061333d565b601f1984166132ec86613029565b5f5b82811015613313578489015182556001820191506020850194506020810190506132ee565b86831015613330578489015161332c601f89168261323f565b8355505b6001600288020188555050505b505050505050565b5f6040820190506133585f830185612d10565b6133656020830184612d10565b9392505050565b5f81905092915050565b5f61338082612900565b61338a818561336c565b935061339a81856020860161291a565b80840191505092915050565b5f6133b18285613376565b91506133bd8284613376565b91508190509392505050565b5f6060820190506133dc5f830186612a1e565b6133e96020830185612a1e565b6133f66040830184612d10565b949350505050565b5f81519050919050565b5f82825260208201905092915050565b5f613422826133fe565b61342c8185613408565b935061343c81856020860161291a565b61344581612928565b840191505092915050565b5f6080820190506134635f830187612a1e565b6134706020830186612a1e565b61347d6040830185612d10565b818103606083015261348f8184613418565b905095945050505050565b5f815190506134a881612878565b92915050565b5f602082840312156134c3576134c2612845565b5b5f6134d08482850161349a565b91505092915050565b7f4e487b71000000000000000000000000000000000000000000000000000000005f52601260045260245ffd5b5f6040820190506135195f830185612a1e565b6135266020830184612d10565b939250505056fea26469706673582212201053055832b68e567d8e0f824876588e9061944e490ec36f6d7c1cccd3d0485464736f6c634300081c0033","linkReferences":{}},"methodIdentifiers":{"acceptPaymentToken()":"412b1e91","acceptTreasury()":"e49d2a30","approve(address,uint256)":"095ea7b3","balanceOf(address)":"70a08231","beneficiary()":"38af3eed","getApproved(uint256)":"081812fc","isApprovedForAll(address,address)":"e985e9c5","maxSupply()":"d5abeb01","mint()":"1249c58b","mintPrice()":"6817c76c","name()":"06fdde03","nominatePaymentToken(address)":"f338bee8","nominateTreasury(address)":"dec9ff83","owner()":"8da5cb5b","ownerOf(uint256)":"6352211e","pause()":"8456cb59","paused()":"5c975abb","paymentToken()":"3013ce29","pendingPaymentToken()":"f167ad2f","pendingTreasury()":"2ed6b75d","renounceOwnership()":"715018a6","safeTransferFrom(address,address,uint256)":"42842e0e","safeTransferFrom(address,address,uint256,bytes)":"b88d4fde","setApprovalForAll(address,bool)":"a22cb465","setBaseURI(string)":"55f804b3","setBeneficiary(address)":"1c31f710","setMaxSupply(uint256)":"6f8b44b0","setMintPrice(uint256)":"f4a0a528","supportsInterface(bytes4)":"01ffc9a7","symbol()":"95d89b41","tokenURI(uint256)":"c87b56dd","totalMinted()":"a2309ff8","transferFrom(address,address,uint256)":"23b872dd","transferOwnership(address)":"f2fde38b","treasury()":"61d027b3","unpause()":"3f4ba83a"},"id":41}